:0C0553000A24C0F9A4B0999282F88090AC
:1001B000750C00750D00750E23750F007510007518
:1001C000112175120075130075140C7B007A0079EB
:1001D00022120003750C00750D00750E23750F00BB
:1001E00075100075112175120075130075140C7BC4
:1001F000007A0079221200039200E52275F00A8449
:10020000AFF0E52375F00A84FEE52375F00A84ADAE
:10021000F0E5227017200014D2B285269074242EA7
:10022000F8E6F58074242DF8E6F5A02274242FF862
:10023000E6F59074242EF8E6F58074242DF8E6F5A2
:10024000A0E52275F00A84FFBF0102C2B2EF64018B
:040250006002D2B2C4
:010254002287
:100255008E1E8F1F20B63C30B6FDE51F6401451E7E
:10026500700C0522E522D3940B4003E4F522E51F2B
:100275006402451E700C0523E523D3943B4003E43B
:10028500F523E523FD7C0075380CC203AB21AF22B5
:1002950012037C20B75430B7FDE51F6401451E707D
:1002A50008E522600415228030E51F6402451E70B2
:1002B50008E523600415238020E51F6401451E70B1
:1002C50009E522700575220B800FE51F6402451EA6
:1002D5007007E523700375233BE523FD7C00753826
:0B02E5000CC203AB21AF2212037C22ED
:10053400E4F508120589120544C2B21201B080FB29
:1004E500E4FDFCC3ED9FEC9E5015E4FBFA0BBB004D
:0F04F500010AEB647B4A70F50DBD00010C80E439
:0105040022D4
:05058900D2B3D2B42240
:07056D00D2B3C2B4C2B322F5
:0C056000D2B4D2B3A2B49202C2B3A20281
:01056C00226C
:10051E00E4FEEF3392B4D2B3C2B3EF25E0FF0EBECA
:05052E0008F012056059
:0105330022A5
:07057400C2B4D2B3C2B322EE
:07057B00D2B4D2B3C2B322D7
:1004C200E4FFFED2B4D2B3EF25E0FF30B40343071A
:1004D20001C2B30EBE08EC3002051205748003128D
:0204E200057B98
:0104E40022F5
:07058200C2B4D2B3D2B422CF
:0F054400E4FF12049EAD0753057FE4FF02050597
:100505008F098D0A12056D7FD012051EAF091205E0
:090515001EAF0A12051E02058248
:02049E008F09C4
:1004A00012056D7FD012051EAF0912051E12056DD3
:1004B0007FD112051EC2021204C28F0A120582AF3A
:0104C0000A31
:0104C1002218
:060003008B098A0A890B3B
:1000090012056D7FD012051EE4FF12051E12056D43
:100019007FD112051ED2021204C28F17D202120416
:10002900C28F16C2021204C28F1512058253177F9E
:10003900E517C4540F75F00AA4FFE517540F2FAB49
:100049000FAA10A91112012753167FE516C4540FE0
:1000590075F00AA4FFE516540F2FAB0CAA0DA90ED3
:10006900120127E51530E633AB12AA13A914740C53
:10007900120127E51530E504D2018002C2015315AA
:100089001FE515C4540F75F00AA4FFE515540F2F89
:10009900AB09AA0AA90B120127803AAB12AA13A924
:1000A90014741812012753153FE515C4540F75F040
:1000B9000AA4FFE515540F2FAB09AA0AA90B1201CF
:1000C90027AB09AA0AA90B1200E1C3940C5004C278
:0700D900018002D201A20127
:0100E00022FD
:10037C008F348C358D368B37E53775F00A84C45441
:10038C00F0FFE53775F00A84E5F04FF537AE35AF81
:10039C00367C007D0A12015BEFC4F8540FC868FB71
:1003AC00EEC454F048FAAE35AF367C007D0A12012B
:1003BC005BEC4AF535ED4BF536E53475F00A84C443
:1003CC0054F0FFE53475F00A84E5F04FF534E53868
:1003DC00B40C0943344030030343342012056D7FC1
:1003EC00D012051EE4FF12051EAF3712051EAF36E4
:0B03FC0012051EAF3412051E02058220
:080462008F188B198A1A891BFF
:10046A00E4F51D12056D7FD012051EAF1812051E88
:10047A00E4F51DE51DC3951C5017AB19AA1AA91B53
:10048A00851D827583001200FAFF12051E051D8064
:04049A00E2020582F3
:080407008F2E8B2F8A30893102
:10040F0012056D7FD012051EAF2E12051E12056D3F
:10041F007FD112051EE4F533E53214FFE533C39F98
:10042F005019D2021204C2AB2FAA30A931853382E0
:10043F00758300EF120139053380DDC2021204C249
:10044F00AB2FAA30A931853382758300EF120139A2
:03045F0002058211
:030000000202F009
:0C02F000787FE4F6D8FD758138020337F2
:1000E100BB010689828A83E0225002E722BBFE021D
:0900F100E32289828A83E4932250
:1000FA00BB010CE58229F582E5833AF583E02250BB
:10010A0006E92582F8E622BBFE06E92582F8E22204
:0D011A00E58229F582E5833AF583E493221E
:10012700BB010689828A83F0225002F722BBFE01B7
:02013700F322B1
:10013900F8BB010DE58229F582E5833AF583E8F0FC
:10014900225006E92582C8F622BBFE05E92582C8A8
:02015900F22290
:10015B00BC000BBE0029EF8DF084FFADF022E4CC88
:10016B00F875F008EF2FFFEE33FEEC33FCEE9DEC51
:10017B00984005FCEE9DFE0FD5F0E9E4CEFD22ED97
:10018B00F8F5F0EE8420D21CFEADF075F008EF2FE1
:10019B00FFED33FD4007985006D5F0F222C398FDD2
:0501AB000FD5F0EA226F
:1002FC00020534E493A3F8E493A34003F68001F2DF
:10030C0008DFF48029E493A3F85407240CC8C33302
:10031C00C4540F4420C8834004F456800146F6DFD1
:10032C00E4800B0102040810204080900553E47E09
:10033C00019360BCA3FF543F30E509541FFEE493C6
:10034C00A360010ECF54C025E060A840B8E493A38D
:10035C00FAE493A3F8E493A3C8C582C8CAC583CAB8
:10036C00F0A3C8C582C8CAC583CADFE9DEE780BE70
:01055F00009B
:00000001FF
